S00B00004164632E7372656311
S11300000C9434000C9446000C9446000C94460066
S11300100C9446000C9446000C9446000C94460044
S11300200C9446000C9446000C9446000C94460034
S11300300C9446000C9446000C9446000C94460024
S11300400C9446000C9446000C9446000C94460014
S11300500C9446000C9459000C9446000C944600F1
S11300600C9446000C94460011241FBECFEFD8E038
S1130070DEBFCDBF22E0A0E0B1E001C01D92A230FE
S1130080B207E1F70E94FF000C948D030C9400006A
S1130090ECE7F0E0808180648083EAE7F0E080812F
S11300A08F68808385E080930001109281017894A9
S11300B008951F920F920FB60F9211248F939F935E
S11300C0EF93FF9380910001853089F4E0918101E1
S11300D0F0E08091780090917900EE0FFF1FEE57C9
S11300E0FE4F9183808384E08093000114C080914B
S11300F00001843081F4E0918101F0E08091780086
S113010090917900EE0FFF1FEF5FFE4F9183808384
S113011085E080930001809181018F5F809381014C
S1130120ECE7F0E08081909100019F70807F892B43
S11301308083809181018F3311F410928101EAE769
S1130140F0E0808180648083FF91EF919F918F9193
S11301500F900FBE0F901F9018958F929F92AF92A1
S1130160BF92CF92DF92EF92FF920F931F93CF93A0
S1130170DF93C0E0D0E0C12CD12C7601FE01EE0F5C
S1130180FF1FEF5FFE4F608171810081118180E06C
S113019090E00E9437024B015C01B80180E090E0DE
S11301A00E9437029B01AC01C501B4010E94C50243
S11301B09B01AC01C701B6010E949C016B017C014B
S11301C02196CF33D105D1F60E94380320E030E0E8
S11301D040E05EE30E94C50223EF34E045EB5FE3B9
S11301E00E94C502DF91CF911F910F91FF90EF9074
S11301F0DF90CF90BF90AF909F908F9008950E9412
S113020048000E94150181E091E00E94AD006B015D
S11302107C0140E0C701B6010E942F018FE19EE4FA
S11302200197F1F700C00000F4CF1092C50087E6F3
S11302308093C400E2ECF0E0808186608083E1EC8E
S1130240F0E08081886180830895E0ECF0E09081A3
S113025095FFFDCF8093C60080E090E00895CF9293
S1130260DF92EF92FF92CF93DF936B017C01D42F47
S11302700E940802CDEC6C9F812D112486958695F1
S11302808695880F982F990F990F890F681B862FD1
S113029080670E94250120E030E040E251E4C7017C
S11302A0B6010E94C5026B017C010E9408026C9F8A
S11302B0912D1124969596959695990F292F220F95
S11302C0220F920F862F891B8F7C80640E94250148
S11302D020E030E040E251E4C701B6010E94C502CB
S11302E00E9408026C9FC12D1124C695C695C6951F
S11302F0CC0F8C2F880F880FC80F6C1B862F8F7A1A
S113030080620E942501D11104C08AE00E94250167
S11303100BC0D13021F48BE00E94250105C0D230FE
S113032019F48CE00E942501DF91CF91FF90EF90AA
S1130330DF90CF9008955058BB27AA270E94B3019D
S11303400C948B020E947D0238F00E94840220F0FB
S113035039F49F3F19F426F40C947A020EF4E095D4
S1130360E7FB0C947402E92F0E949C0258F3BA171D
S1130370620773078407950720F079F4A6F50C94B7
S1130380BE020EF4E0950B2EBA2FA02D0B01B9017D
S113039090010C01CA01A0011124FF27591B99F0F7
S11303A0593F50F4503E68F11A16F040A22F232F03
S11303B0342F4427585FF3CF469537952795A79553
S11303C0F0405395C9F77EF41F16BA0B620B730BFA
S11303D0840BBAF09150A1F0FF0FBB1F661F771F6B
S11303E0881FC2F70EC0BA0F621F731F841F48F420
S11303F0879577956795B795F7959E3F08F0B0CFA9
S11304009395880F08F09927EE0F9795879508958F
S11304100E94A40288F09F5798F0B92F9927B751EA
S1130420B0F0E1F0660F771F881F991F1AF0BA9594
S1130430C9F714C0B13091F00E94BE02B1E0089532
S11304400C94BE02672F782F8827B85F39F0B93F24
S1130450CCF3869577956795B395D9F73EF4909547
S11304608095709561957F4F8F4F9F4F0895E894C5
S113047009C097FB3EF490958095709561957F4FE8
S11304808F4F9F4F9923A9F0F92F96E9BB27939596
S1130490F695879577956795B795F111F8CFFAF4A6
S11304A0BB0F11F460FF1BC06F5F7F4F8F4F9F4FD7
S11304B016C0882311F096E911C0772321F09EE835
S11304C0872F762F05C0662371F096E8862F70E09B
S11304D060E02AF09A95660F771F881FDAF7880F75
S11304E09695879597F9089597F99F6780E870E046
S11304F060E008959FEF80EC089500240A94161696
S1130500170618060906089500240A9412161306FD
S1130510140605060895092E0394000C11F488238B
S113052052F0BB0F40F4BF2B11F460FF04C06F5FA7
S11305307F4F8F4F9F4F089557FD9058440F551F7D
S113054059F05F3F71F04795880F97FB991F61F051
S11305509F3F79F087950895121613061406551FC8
S1130560F2CF4695F1DF08C0161617061806991F34
S1130570F1CF86957105610508940895E894BB2729
S113058066277727CB0197F908950E94D8020C9427
S11305908B020E947D0238F00E94840220F0952391
S11305A011F00C9474020C947A0211240C94BF027E
S11305B00E949C0270F3959FC1F3950F50E0551F64
S11305C0629FF001729FBB27F00DB11D639FAA27A4
S11305D0F00DB11DAA1F649F6627B00DA11D661FF3
S11305E0829F2227B00DA11D621F739FB00DA11D14
S11305F0621F839FA00D611D221F749F3327A00DCE
S1130600611D231F849F600D211D822F762F6A2F69
S113061011249F5750409AF0F1F088234AF0EE0FCE
S1130620FF1FBB1F661F771F881F91505040A9F7FB
S11306309E3F510580F00C9474020C94BF025F3FFE
S1130640E4F3983ED4F3869577956795B795F79537
S1130650E7959F5FC1F7FE2B880F911D96958795AF
S113066097F9089519F416F40C947A020C9478030B
S11306700E94A402B8F39923C9F3B6F39F57550B0C
S113068087FF0E9486030024A0E640EA9001805878
S11306905695979528F4805C660F771F881F20F085
S11306A026173707480730F4621B730B840B202985
S11306B031294A2BA69517940794202531254A27DA
S11306C058F7660F771F881F20F02617370748074B
S11306D030F4620B730B840B200D311D411DA0956A
S11306E081F7B901842F9158880F969587950895BD
S11306F09F3F31F0915020F4879577956795B79592
S1130700880F911D9695879597F9089591505040BB
S1110710660F771F881FD2F70895F894FFCF65
S9030000FC
