S00B00004164632E7372656311
S11300000C9434000C943E000C943E000C943E007E
S11300100C943E000C943E000C943E000C943E0064
S11300200C943E000C943E000C943E000C943E0054
S11300300C943E000C943E000C943E000C943E0044
S11300400C943E000C943E000C943E000C943E0034
S11300500C943E000C943E000C943E000C943E0024
S11300600C943E000C943E0011241FBECFEFD8E048
S1130070DEBFCDBF0E9407010C940E030C94000058
S11300801092C50087E68093C400E2ECF0E0808122
S113009086608083E1ECF0E080818861808308954C
S11300A0E0ECF0E0908195FFFDCF8093C60080E006
S11300B090E00895CF92DF92EF92FF92CF936B017D
S11300C07C010E948901CDEC6C9F812D11248695C1
S11300D086958695880F982F990F990F890F681B1D
S11300E0862F80670E94500020E030E040E251E417
S11300F0C701B6010E9446026B017C010E9489017E
S11301006C9F912D1124969596959695990F292F6C
S1130110220F220F920F862F891B8F7C80640E94EE
S1130120500020E030E040E251E4C701B6010E94F3
S113013046020E9489016C9FC12D1124C695C69563
S1130140C695CC0F8C2F880F880FC80F6C1B862F79
S11301508F7A80620E9450008AE00E945000CF9102
S1130160FF90EF90DF90CF900895ECE7F0E080816E
S113017080648083EAE7F0E0808187688083089563
S1130180ECE7F0E090818F70907F892B8083EAE721
S1130190F0E0808180648083808186FDFDCF809142
S11301A078009091790008958F929F92AF92BF92B8
S11301B0CF93DF93D82FCFE3812C912C54018D2F33
S11301C00E94C000BC0180E090E00E94B8019B0145
S11301D0AC010E9446029B01AC01C501B4010E941E
S11301E01D014B015C01C15051F70E94B90220E08E
S11301F030E040E05EE30E9446020E948901CB01A8
S1130200DF91CF91BF90AF909F908F9008950E94FF
S1130210B5000E94400080E00E94D400BC0180E050
S113022090E00E94B80120E030E040EA5BE30E94E5
S113023046020E945A00EFCF5058BB27AA270E94BB
S113024034010C940C020E94FE0138F00E94050255
S113025020F039F49F3F19F426F40C94FB010EF4BA
S1130260E095E7FB0C94F501E92F0E941D0258F379
S1130270BA17620773078407950720F079F4A6F587
S11302800C943F020EF4E0950B2EBA2FA02D0B0117
S1130290B90190010C01CA01A0011124FF27591BC7
S11302A099F0593F50F4503E68F11A16F040A22FCD
S11302B0232F342F4427585FF3CF4695379527953E
S11302C0A795F0405395C9F77EF41F16BA0B620B3D
S11302D0730B840BBAF09150A1F0FF0FBB1F661F84
S11302E0771F881FC2F70EC0BA0F621F731F841FC7
S11302F048F4879577956795B795F7959E3F08F0ED
S1130300B0CF9395880F08F09927EE0F97958795AE
S113031008950E94250288F09F5798F0B92F9927D5
S1130320B751B0F0E1F0660F771F881F991F1AF0DC
S1130330BA95C9F714C0B13091F00E943F02B1E000
S113034008950C943F02672F782F8827B85F39F0FF
S1130350B93FCCF3869577956795B395D9F73EF475
S113036090958095709561957F4F8F4F9F4F08951D
S1130370E89409C097FB3EF490958095709561953B
S11303807F4F8F4F9F4F9923A9F0F92F96E9BB27F1
S11303909395F695879577956795B795F111F8CF6D
S11303A0FAF4BB0F11F460FF1BC06F5F7F4F8F4FD8
S11303B09F4F16C0882311F096E911C0772321F0CE
S11303C09EE8872F762F05C0662371F096E8862F66
S11303D070E060E02AF09A95660F771F881FDAF7BD
S11303E0880F9695879597F9089597F99F6780E800
S11303F070E060E008959FEF80EC089500240A9473
S11304001616170618060906089500240A941216EB
S11304101306140605060895092E0394000C11F41E
S1130420882352F0BB0F40F4BF2B11F460FF04C0CB
S11304306F5F7F4F8F4F9F4F089557FD9058440F24
S1130440551F59F05F3F71F04795880F97FB991F2F
S113045061F09F3F79F087950895121613061406EC
S1130460551FF2CF4695F1DF08C016161706180679
S1130470991FF1CF86957105610508940895E89454
S1130480BB2766277727CB0197F908950E94590265
S11304900C940C020E94FE0138F00E94050220F028
S11304A0952311F00C94F5010C94FB0111240C9488
S11304B040020E941D0270F3959FC1F3950F50E016
S11304C0551F629FF001729FBB27F00DB11D639F02
S11304D0AA27F00DB11DAA1F649F6627B00DA11DA8
S11304E0661F829F2227B00DA11D621F739FB00D4E
S11304F0A11D621F839FA00D611D221F749F3327BE
S1130500A00D611D231F849F600D211D822F762F56
S11305106A2F11249F5750409AF0F1F088234AF033
S1130520EE0FFF1FBB1F661F771F881F915050409F
S1130530A9F79E3F510580F00C94F5010C944002FC
S11305405F3FE4F3983ED4F3869577956795B79526
S1130550F795E7959F5FC1F7FE2B880F911D969540
S1130560879597F9089519F416F40C94FB010C94EB
S1130570F9020E942502B8F39923C9F3B6F39F57F1
S1130580550B87FF0E9407030024A0E640EA900170
S113059080585695979528F4805C660F771F881FBE
S11305A020F026173707480730F4621B730B840BBF
S11305B0202931294A2BA695179407942025312503
S11305C04A2758F7660F771F881F20F0261737072A
S11305D0480730F4620B730B840B200D311D411D51
S11305E0A09581F7B901842F9158880F9695879526
S11305F008959F3F31F0915020F487957795679542
S1130600B795880F911D9695879597F90895915000
S11306105040660F771F881FD2F70895F894FFCFD4
S9030000FC
