S00B00004164632E7372656311
S11300000C9434000C943E000C943E000C943E007E
S11300100C943E000C943E000C943E000C943E0064
S11300200C943E000C943E000C943E000C943E0054
S11300300C943E000C943E000C943E000C943E0044
S11300400C943E000C943E000C943E000C943E0034
S11300500C943E000C943E000C943E000C943E0024
S11300600C943E000C943E0011241FBECFEFD8E048
S1130070DEBFCDBF0E94B3000C94F8010C940000C5
S11300801092C50087E68093C400E2ECF0E0808122
S113009086608083E1ECF0E080818861808308954C
S11300A0E0ECF0E0908195FFFDCF8093C60080E006
S11300B090E00895CF92DF92EF92FF92CF93DF9377
S11300C06B017C010E94CE00D62FCDEC6C9FC12D1C
S11300D01124C695C695C6958C2F8F7E80660E9486
S11300E05000CC0F8C2F880F880FC80F8D2F8C1BBE
S11300F08F7D80650E94500020E030E040E251E4B2
S1130100C701B6010E9463010E94CE00862F8A7047
S11301100E9450008AE00E945000DF91CF91FF902E
S1130120EF90DF90CF900895ECE7F0E08081806459
S11301308083EAE7F0E08081876880830895ECE7B4
S1130140F0E090818F70907F892B8083EAE7F0E064
S1130150808180648083808186FDFDCF80917800DA
S11301609091790008950E9494000E94400080E0DC
S11301700E949F00BC0180E090E00E94FD0020E00E
S113018030E048E45DE30E9463010E945A008FE17D
S11301909EE40197F1F700C00000E9CF0E944201FC
S11301A088F09F5798F0B92F9927B751B0F0E1F034
S11301B0660F771F881F991F1AF0BA95C9F714C0E4
S11301C0B13091F00E945C01B1E008950C945C019F
S11301D0672F782F8827B85F39F0B93FCCF386951D
S11301E077956795B395D9F73EF49095809570957A
S11301F061957F4F8F4F9F4F0895E89409C097FBF7
S11302003EF490958095709561957F4F8F4F9F4FE9
S11302109923A9F0F92F96E9BB279395F69587952D
S113022077956795B795F111F8CFFAF4BB0F11F4F0
S113023060FF1BC06F5F7F4F8F4F9F4F16C0882397
S113024011F096E911C0772321F09EE8872F762FCD
S113025005C0662371F096E8862F70E060E02AF00E
S11302609A95660F771F881FDAF7880F96958795FA
S113027097F9089557FD9058440F551F59F05F3F63
S113028071F04795880F97FB991F61F09F3F79F0B4
S113029087950895121613061406551FF2CF469536
S11302A0F1DF08C0161617061806991FF1CF8695B8
S11302B07105610508940895E894BB27662777279C
S11302C0CB0197F908950E9476010C94E7010E94EE
S11302D0D90138F00E94E00120F0952311F00C942C
S11302E0D0010C94D60111240C945D010E943A01B2
S11302F070F3959FC1F3950F50E0551F629FF00175
S1130300729FBB27F00DB11D639FAA27F00DB11D8D
S1130310AA1F649F6627B00DA11D661F829F222716
S1130320B00DA11D621F739FB00DA11D621F839F9D
S1130330A00D611D221F749F3327A00D611D231F73
S1130340849F600D211D822F762F6A2F11249F57C1
S113035050409AF0F1F088234AF0EE0FFF1FBB1FC4
S1130360661F771F881F91505040A9F79E3F510583
S113037080F00C94D0010C945D015F3FE4F3983E4F
S1130380D4F3869577956795B795F795E7959F5F2D
S1130390C1F7FE2B880F911D9695879597F90895BF
S11303A097F99F6780E870E060E008959FEF80EC24
S11303B0089500240A9416161706180609060895C7
S11303C000240A9412161306140605060895092E2D
S11303D00394000C11F4882352F0BB0F40F4BF2B9C
S11303E011F460FF04C06F5F7F4F8F4F9F4F0895DC
S10703F0F894FFCFAB
S9030000FC
