S00B00004164632E7372656311
S11300000C9475000C947F000C947F000C947F007A
S11300100C947F000C947F000C947F000C947F0060
S11300200C947F000C947F000C947F000C947F0050
S11300300C947F000C947F000C947F000C947F0040
S11300400C947F000C947F000C947F000C947F0030
S11300500C947F000C947F000C947F000C947F0020
S11300600C947F000C947F0007634236B79BD8A79B
S11300701A39685618AEBAAB558C1D3CB7CC5763C9
S1130080BD6DEDFD753EF6177231BF000000803F77
S113009008000000BE922449123EABAAAA2ABECD93
S11300A0CCCC4C3E00000080BEABAAAAAA3E000005
S11300B00000BF000000803F0000000000084178FD
S11300C0D3BB4387D1133D190E3CC3BD4282AD2B34
S11300D03E68EC8276BED98FE1A93E4C80EFFFBE2C
S11300E001C4FF7F3F000000000011241FBECFEFBA
S11300F0D8E0DEBFCDBF0E943A010C94E3040C9417
S113010000001092C50087E68093C400E2ECF0E0A2
S1130110808186608083E1ECF0E080818861808367
S11301200895E0ECF0E0908195FFFDCF8093C60048
S113013080E090E00895CF92DF92EF92FF921F93B8
S1130140CF93DF936B017C010E943402162FCDEC18
S11301506C9FD12D1124D695D695D6958D2F8F7E53
S113016080660E949100DD0F8D2F880F880FD80FB5
S1130170812F8D1B8F7D80650E94910020E030E0EF
S113018040E251E4C701B6010E94F1020E94340228
S11301906C9FC12D1124C695C695C695CC0F8C2F86
S11301A0880F880FC80F6C1B862F8F7A80620E947D
S11301B091008AE00E949100DF91CF911F91FF90FE
S11301C0EF90DF90CF900895ECE7F0E080818064B9
S11301D08083EAE7F0E08081876880830895ECE714
S11301E0F0E090818F70907F892B8083EAE7F0E0C4
S11301F0808180648083808186FDFDCF809178003A
S11302009091790008958F929F92AF92BF92CF936D
S1130210DF93D82FC3E1812C912C54018D2F0E94A0
S1130220EF00BC0180E090E00E9463029B01AC01FE
S11302300E94F1029B01AC01C501B4010E94560168
S11302404B015C01C15051F720E030E048E951E432
S11302500E94C20120E030E040E05FE30E945E03C0
S11302600E943402CB01DF91CF91BF90AF909F9059
S11302708F9008950E94E4000E94810080E00E9413
S11302800301BC0180E090E00E94630220E030E0C2
S113029048E45DE30E94F1020E949B008FE19EE42A
S11302A00197F1F700C00000E9CF5058BB27AA27F7
S11302B00E946D010C94B7020E94A90238F00E94BA
S11302C0B00220F039F49F3F19F426F40C94A602EE
S11302D00EF4E095E7FB0C94A002E92F0E94C802FB
S11302E058F3BA17620773078407950720F079F467
S11302F0A6F50C94EA020EF4E0950B2EBA2FA02D6D
S11303000B01B90190010C01CA01A0011124FF27BE
S1130310591B99F0593F50F4503E68F11A16F040B9
S1130320A22F232F342F4427585FF3CF46953795B8
S11303302795A795F0405395C9F77EF41F16BA0B7D
S1130340620B730B840BBAF09150A1F0FF0FBB1F2B
S1130350661F771F881FC2F70EC0BA0F621F731F74
S1130360841F48F4879577956795B795F7959E3FD1
S113037008F0B0CF9395880F08F09927EE0F979562
S1130380879508950E94D6010C94B7020E94B0028A
S113039058F00E94A90240F029F45F3F29F00C9420
S11303A0A00251110C94EB020C94A6020E94C80204
S11303B068F39923B1F3552391F3951B550BBB2790
S11303C0AA2762177307840738F09F5F5F4F220FD5
S11303D0331F441FAA1FA9F335D00E2E3AF0E0E8CC
S11303E032D091505040E695001CCAF72BD0FE2F16
S11303F029D0660F771F881FBB1F261737074807AA
S1130400AB07B0E809F0BB0B802DBF01FF27935861
S11304105F4F3AF09E3F510578F00C94A0020C9483
S1130420EB025F3FE4F3983ED4F3869577956795A6
S1130430B795F7959F5FC9F7880F911D9695879596
S113044097F90895E1E0660F771F881FBB1F6217B5
S113045073078407BA0720F0621B730B840BBA0B73
S1130460EE1F88F7E09508950E94D00288F09F5708
S113047098F0B92F9927B751B0F0E1F0660F771FC4
S1130480881F991F1AF0BA95C9F714C0B13091F0BA
S11304900E94EA02B1E008950C94EA02672F782FD3
S11304A08827B85F39F0B93FCCF38695779567957F
S11304B0B395D9F73EF490958095709561957F4FEB
S11304C08F4F9F4F0895E89409C097FB3EF4909591
S11304D08095709561957F4F8F4F9F4F9923A9F019
S11304E0F92F96E9BB279395F695879577956795A8
S11304F0B795F111F8CFFAF4BB0F11F460FF1BC0EC
S11305006F5F7F4F8F4F9F4F16C0882311F096E97E
S113051011C0772321F09EE8872F762F05C066232C
S113052071F096E8862F70E060E02AF09A95660FE5
S1130530771F881FDAF7880F9695879597F908959E
S113054097F99F6780E870E060E008959FEF80EC82
S1130550089500240A941616170618060906089525
S113056000240A9412161306140605060895092E8B
S11305700394000C11F4882352F0BB0F40F4BF2BFA
S113058011F460FF04C06F5F7F4F8F4F9F4F08953A
S113059057FD9058440F551F59F05F3F71F0479530
S11305A0880F97FB991F61F09F3F79F08795089515
S11305B0121613061406551FF2CF4695F1DF08C034
S11305C0161617061806991FF1CF86957105610551
S11305D008940895E894BB2766277727CB0197F9F9
S11305E008950E9404030C94B7020E94A90238F0F3
S11305F00E94B00220F0952311F00C94A0020C94F8
S1130600A60211240C94EB020E94C80270F3959F79
S1130610C1F3950F50E0551F629FF001729FBB27F5
S1130620F00DB11D639FAA27F00DB11DAA1F649F91
S11306306627B00DA11D661F829F2227B00DA11D44
S1130640621F739FB00DA11D621F839FA00D611DCA
S1130650221F749F3327A00D611D231F849F600DEB
S1130660211D822F762F6A2F11249F5750409AF014
S1130670F1F088234AF0EE0FFF1FBB1F661F771FA0
S1130680881F91505040A9F79E3F510580F00C946B
S1130690A0020C94EB025F3FE4F3983ED4F38695FA
S11306A077956795B795F795E7959F5FC1F7FE2B0B
S11306B0880F911D9695879597F90895FA01EE0F85
S11306C0FF1F309621053105A1F16115710561F413
S11306D08038BFE39B0749F168949038810561F045
S11306E08038BFEF9B0741F099234AF5FF3FE105AE
S11306F03105210519F1E8940894E795D901AA2355
S113070029F4AB2FBE2FF85FD0F310C0FF5F70F455
S1130710A695E0F7F73950F019F0FF3A38F49F77CF
S11307209F930DD00F9007FC9058089546F00C94B9
S1130730A60260E070E080E89FE308954FE79F77AA
S11307405F934F933F932F930E9459042F913F91AE
S11307504F915F910E94F1020C94B60329F416F0B4
S11307600C94A0020C94EA020C94A6020E94D002FB
S1130770A8F39638A0F707F80F92E8942BE33AEA27
S113078048EB5FE70E9407030F920F920F924DB759
S11307905EB70F920E94A104E8E6F0E00E94E8032D
S11307A04F915F91EF91FF91E595EE1FFF1F49F087
S11307B0FE57E0684427EE0F441FFA95E1F7419590
S11307C0550B0E941B040F9007FE0C940F04089510
S11307D0DF93CF931F930F93FF92EF92DF927B01EE
S11307E08C01689406C0DA2EEF010E940403FE0116
S11307F0E894A5912591359145915591A6F3EF0182
S11308000E946D01FE019701A801DA9469F7DF9057
S1130810EF90FF900F911F91CF91DF9108959B016D
S1130820AC0160E070E080E89FE30C94C2010C949A
S1130830A0020C94D5040E94D002D8F39923C9F3E2
S1130840940F511DA3F39150504094F059F0882314
S113085032F0660F771F881F91505040C1F79E3FBA
S113086051052CF7880F911D9695879597F9089552
S11308705F3FACF0983E9CF0BB27869577956795D3
S1130880B79508F4B1609395C1F7BB0F58F711F40D
S113089060FFE8CF6F5F7F4F8F4F9F4FE3CF0C9484
S11308A0EB0216F00C94D5040C94A60268940C94F4
S11308B0A0020E94D002A8F39923C1F3AEF3DF9300
S11308C0CF931F930F93FF92C92FDD2788232AF01C
S11308D02197660F771F881FDAF720E030E040E8A1
S11308E05FEB9FE3883920F0803E38F021968F77C4
S11308F00E945601E0E9F0E004C00E945601EDEBCD
S1130900F0E00E94E8038B01BE01EC01FB2E6F575F
S113091071097595771F880B990B0E94650228E170
S113092032E741E35FE30E940403AF2D9801AE0177
S1130930FF900F911F91CF91DF910E946D010C9454
S1130940B702FA01DC01AA0FBB1F9B01AC01BF5720
S113095028F4222733274427507820C0B75190F435
S1130960AB2F0024469537952795011CA395D2F308
S1130970002071F0220F331F441FB395DAF30ED019
S11309800C94550161307105A0E88A07B94630F42A
S11309909B01AC016627772788279078309621F051
S11309A0208331834283538308959F3F31F09150D4
S11309B020F4879577956795B795880F911D96953F
S10D09C0879597F90895F894FFCF86
S9030000FC
