S00F000047726F757031362E73726563A1
S11300000C9434000C9449000C9449000C9449005D
S11300100C9449000C9449000C9449000C94490038
S11300200C9449000C9449000C9449000C94490028
S11300300C9449000C9449000C9449000C94490018
S11300400C9449000C9449000C9449000C94490008
S11300500C9449000C9449000C9449000C944900F8
S11300600C9449000C94490011241FBECFEFD8E032
S1130070DEBFCDBF11E0A0E0B1E0E0E4F1E002C0FA
S113008005900D92AA30B107D9F70E9469000C942B
S11300909E000C94000085E28093C50080E8809364
S11300A0C400E1ECF0E0808188608083E2ECF0E061
S11300B080818660808308959091C000911108C06A
S11300C0A6ECB0E0E0ECF0E08C9390819923E1F3AE
S11300D00895CF93DF93CDB7DEB72A970FB6F89480
S11300E0DEBF0FBECDBF0E944B008AE0E0E0F1E02E
S11300F0DE01119601900D928A95E1F700E00F2E32
S1130100FDECFF2EF02DE1E0F0E0EC0FFD1FE00F21
S1130110F11D80818F9D112D11241695169516952C
S1130120212F220F922F990F990F920F891B0E9452
S11301305C00812F0E945C000F5FE5CFF894FFCF35
S10D014011171D252B353B435361B5
S9030000FC
