S00F000047726F757031362E73726563A1
S11300000C9434000C9449000C9449000C9449005D
S11300100C9449000C9449000C9449000C94490038
S11300200C9449000C9449000C9449000C94490028
S11300300C9449000C9449000C9449000C94490018
S11300400C9449000C9449000C9449000C94490008
S11300500C9449000C9449000C9449000C944900F8
S11300600C9449000C94490011241FBECFEFD8E032
S1130070DEBFCDBF11E0A0E0B1E0EEE3F1E002C0ED
S113008005900D92AA30B107D9F70E9468000C942C
S11300909D000C9400001092C50087E68093C40074
S11300A0E1ECF0E0808188608083E2ECF0E0808124
S11300B08660808308959091C000911108C0A6ECD9
S11300C0B0E0E0ECF0E08C9390819923E1F30895A3
S11300D0CF93DF93CDB7DEB72A970FB6F894DEBF80
S11300E00FBECDBF0E944B008AE0E0E0F1E0DE01EC
S11300F0119601900D928A95E1F700E00F2EFDEC28
S1130100FF2EF02DE1E0F0E0EC0FFD1FE00FF11DFC
S113011080818F9D112D1124169516951695212FEA
S1130120220F922F990F990F920F891B0E945B0047
S1110130812F0E945B000F5FE5CFF894FFCF94
S10D013E11171D252B353B435361B7
S9030000FC
