S00F000047726F757031362E73726563A1
S11300000C9434000C943E000C943E000C943E007E
S11300100C943E000C943E000C943E000C943E0064
S11300200C943E000C943E000C943E000C943E0054
S11300300C943E000C943E000C943E000C943E0044
S11300400C943E000C943E000C943E000C943E0034
S11300500C943E000C943E000C943E000C943E0024
S11300600C943E000C943E0011241FBECFEFD8E048
S1130070DEBFCDBF0E9458000C947D000C9400009C
S11300801092C50087E68093C400E1ECF0E0808123
S113009088608083E2ECF0E080818660808308954C
S11300A0E0ECF0E090819923E9F38093C600089591
S11300B0CF93DF9300D000D0CDB7DEB786E6898337
S11300C087E48A8388E28B8389E08C830E944000E2
S11300D07E0185E0E80EF11C8E010F5F1F4FF801D1
S11300E081918F010E9450008AE191E40197F1F718
S11100F000000E151F0599F7EFCFF894FFCF0F
S9030000FC
