S00F000047726F757031362E73726563A1
S11300000C9434000C9449000C9449000C9449005D
S11300100C9449000C9449000C9449000C94490038
S11300200C9449000C9449000C9449000C94490028
S11300300C9449000C9449000C9449000C94490018
S11300400C9449000C9449000C9449000C94490008
S11300500C9449000C9449000C9449000C944900F8
S11300600C9449000C94490011241FBECFEFD8E032
S1130070DEBFCDBF11E0A0E0B1E0E4E3F1E002C0F7
S113008005900D92AA30B107D9F70E9462000C9432
S113009098000C9400001092C5008093C400E1EC19
S11300A0F0E0808188608083E2ECF0E0808186600B
S11300B080830895E0ECF0E090819923E9F3809344
S11300C0C6000895CF93DF93CDB7DEB72A970FB656
S11300D0F894DEBF0FBECDBF87E60E944B008AE0D6
S11300E0E0E0F1E0DE01119601900D928A95E1F7CE
S11300F000E00F2EFDECFF2EF02DE1E0F0E0EC0F20
S1130100FD1FE00FF11D80818F9D112D1124169587
S113011016951695212F220F922F990F990F920F52
S1130120891B0E945A00812F0E945A000F5FE5CF5D
S1070130F894FFCF6D
S10D013411171D252B353B435361C1
S9030000FC
