S00F000047726F757031362E73726563A1
S11300000C9434000C943E000C943E000C943E007E
S11300100C943E000C943E000C943E000C943E0064
S11300200C943E000C943E000C943E000C943E0054
S11300300C943E000C943E000C943E000C943E0044
S11300400C943E000C943E000C943E000C943E0034
S11300500C943E000C943E000C943E000C943E0024
S11300600C943E000C943E0011241FBECFEFD8E048
S1130070DEBFCDBF0E9458000C945F000C940000BA
S11300801092C50087E68093C400E1ECF0E0808123
S113009088608083E2ECF0E080818660808308954C
S11300A0E0ECF0E090819923E9F38093C600089591
S11300B087E60E94400085E20E945000FCCFF8943D
S10500C0FFCF6C
S9030000FC
