S00F000047726F757031362E73726563A1
S11300000C9434000C9449000C9449000C9449005D
S11300100C9449000C9449000C9449000C94490038
S11300200C9449000C9449000C9449000C94490028
S11300300C9449000C9449000C9449000C94490018
S11300400C9449000C9449000C9449000C94490008
S11300500C9449000C9449000C9449000C944900F8
S11300600C9449000C94490011241FBECFEFD8E032
S1130070DEBFCDBF11E0A0E0B1E0EAE3F1E002C0F1
S113008005900D92AA30B107D9F70E946C000C9428
S11300909B000C9400001092C50087E68093C40076
S11300A0E1ECF0E0808188608083E2ECF0E0808124
S11300B0866080830895E0ECF0E090819923E9F371
S11300C08093C6002FEF80E792E02150804090405B
S11300D0E1F700C000000895CF93DF93CDB7DEB7FA
S11300E02A970FB6F894DEBF0FBECDBF8AE0E0E0DA
S11300F0F1E0DE01119601900D928A95E1F787E611
S11301000E944B007E012BE0E20EF11C8E010F5F7A
S11301101F4FF80181918F010E945B00FFEF29E6D8
S113012088E1F15020408040E1F700C000000E1546
S10D01301F0579F7EBCFF894FFCF19
S10D013A0C0F43594822313B3D34B9
S9030000FC
