S00F000047726F757031362E73726563A1
S11300000C9434000C943E000C943E000C943E007E
S11300100C943E000C943E000C943E000C943E0064
S11300200C943E000C943E000C943E000C943E0054
S11300300C943E000C943E000C943E000C943E0044
S11300400C943E000C943E000C943E000C943E0034
S11300500C943E000C943E000C943E000C943E0024
S11300600C943E000C943E0011241FBECFEFD8E048
S1130070DEBFCDBF0E9458000C9482000C94000097
S11300801092C50087E68093C400E1ECF0E0808123
S113009088608083E2ECF0E080818660808308954C
S11300A0E0ECF0E090819923E9F38093C600089591
S11300B0CF93DF9300D000D0CDB7DEB781E689833C
S11300C082E48A8383E28B8384E08C8387E60E94C4
S11300D040007E0125E0E20EF11C8E010F5F1F4FF0
S11300E0F80181918F010E945000FFEF24E38CE01E
S11300F0F15020408040E1F700C000000E151F05BC
S10B010079F7EBCFF894FFCF6F
S9030000FC
